:100000000C9435010C9466010C9466010C94660105
:100010000C9466010C9466010C9466010C946601C4
:100020000C9466010C9466010C9466010C946601B4
:100030000C9466010C9466010C9466010C946601A4
:100040000C9466010C9466010C9466010C94660194
:100050000C9466010C9466010C9466010C940105E5
:100060000C9466010C94CB040C94A1040C946601CE
:100070000C9466010C9466010C9466010C94660164
:100080000C9466010C9466010C9466010C94660154
:100090000C9466010C9466010C9466010C94660144
:1000A0000C9466010C9466010C9466010C94660134
:1000B0000C9466010C9466010C9466010C94660124
:1000C0000C9466010C9466010C9466010C94660114
:1000D0000C9466010C9466010C9466010C94660104
:1000E0000C9466010C94FB020C9495010C94E702AD
:1000F0000C94D9020C94DF020C94C8020C94E30215
:100100000C947C0B0C94ED020C94F1020C94B8014D
:100110000C944B020C9468010C94CC020C94C00219
:100120000C94FE010C94FA020C94FF020C94D5027C
:100130000C94C6010C94CF020C94C4020C94A4013C
:100140000C94BA020C94F502000021002400270050
:100150002A002D00300033000101000004010701D6
:100160000A0100002200250028002B002E0031008B
:10017000340002010000050108010B01000020000D
:100180002300260029002C002F003200000100006F
:10019000030106010901050505050705080808080A
:1001A000020202020A0A080804040404010101010F
:1001B000010101010303030303030303040707070A
:1001C0000C0C0C0C0C0C0C0C0202020206060606AF
:1001D000060606060B0B0B0B0B0B0B0B010210207C
:1001E000200808102040102040800201020108046D
:1001F0000201010204081020408080402010080401
:100200000201800402018040201008040201080459
:10021000020101020408102040800102040810209D
:10022000408000000A0B02090C0D0E0807030401B0
:1002300000000000000000000000000000000000BE
:10024000000000000000000000000000000012118B
:10025000100000000000000000000000000000008E
:1002600000000000000000007C0B11241FBECFEF37
:10027000D1E2DEBFCDBF00E00CBF12E0A0E0B2E0F3
:10028000EAEAF7E100E00BBF02C007900D92A8393F
:10029000B107D9F723E0A8E9B2E001C01D92A43468
:1002A000B207E1F711E0C5E3D1E000E006C0219715
:1002B0000109802FFE010E94CB0BC433D10780E0DF
:1002C0000807A9F70E944B050C94D30B0C9400006F
:1002D000AF92BF92CF92DF92EF92FF920F931F9354
:1002E000CF93DF936C017B018B01040F151FEB0192
:1002F0005E01AE18BF08C017D10759F06991D60149
:10030000ED91FC910190F081E02DC6011995892BAA
:1003100079F7C501DF91CF911F910F91FF90EF9079
:10032000DF90CF90BF90AF900895FC01538D448D26
:10033000252F30E0842F90E0821B930B541710F090
:10034000CF96089501970895FC01918D828D98179D
:1003500061F0A28DAE0FBF2FB11D5D968C91928D75
:100360009F5F9F73928F90E008958FEF9FEF0895A6
:10037000FC01918D828D981731F0828DE80FF11D6F
:10038000858D90E008958FEF9FEF0895FC01918D8A
:10039000228D892F90E0805C9F4F821B91098F7383
:1003A0009927089587EA92E00E94C60121E0892BEF
:1003B00009F420E0822F0895FC01A48DA80FB92F25
:1003C000B11DA35ABF4F2C91848D90E001968F737D
:1003D0009927848FA689B7892C93A089B1898C919C
:1003E000837080648C93938D848D981306C00288EB
:1003F000F389E02D80818F7D80830895EF92FF92B5
:100400000F931F93CF93DF93EC0181E0888F9B8D37
:100410008C8D98131AC0E889F989808185FF15C0F1
:100420009FB7F894EE89FF896083E889F989808114
:100430008370806480839FBF81E090E0DF91CF91E3
:100440001F910F91FF90EF900895F62E0B8D10E005
:100450000F5F1F4F0F731127E02E8C8D8E110CC074
:100460000FB607FCFACFE889F989808185FFF5CFBF
:10047000CE010E94DC01F1CFEB8DEC0FFD2FF11DC1
:10048000E35AFF4FF0829FB7F8940B8FEA89FB89FC
:1004900080818062CFCFCF93DF93EC01888D88235A
:1004A000B9F0AA89BB89E889F9898C9185FD03C0D7
:1004B000808186FD0DC00FB607FCF7CF8C9185FFBC
:1004C000F2CF808185FFEDCFCE010E94DC01E9CF24
:1004D000DF91CF91089580E090E0892B29F00E9470
:1004E000D20181110E94000080E090E0892B49F048
:1004F00080E090E0892B29F00E94000081110E9489
:10050000000080E090E0892B49F080E090E0892BAA
:1005100029F00E94000081110E94000080E090E01C
:10052000892B49F080E090E0892B29F00E9400009F
:1005300081110C94000008958150823108F05AC056
:10054000E82FF0E08827E855FD4F8F4F0C94CB0B38
:10055000C802CC02BA02C002C402FA02CF02D5021B
:10056000D902DF02E302E702ED02F102FA02F5022C
:10057000FB02FF02809180008F77809380000895B6
:10058000809180008F7DF9CF80918000877FF5CFAB
:1005900084B58F7784BD089584B58F7DFBCF80911E
:1005A000B0008F778093B00008958091B0008F7D68
:1005B000F9CF809190008F7780939000089580917B
:1005C00090008F7DF9CF80919000877FF5CF80914B
:1005D000A0008F778093A00008958091A0008F7D68
:1005E000F9CF8091A000877FF5CF809120018F7790
:1005F000809320010895809120018F7DF9CF809113
:100600002001877FF5CFCF93DF93282F30E0F901CA
:10061000EE5DFD4F8491F901E452FE4FD491F90152
:10062000EA56FE4FC491CC23A1F081110E949C0296
:10063000EC2FF0E0EE0FFF1FE458FE4FA591B491B0
:10064000EC91ED2381E090E009F480E0DF91CF911F
:10065000089580E090E0FACF1F93CF93DF93282F87
:1006600030E0F901EE5DFD4F8491F901E452FE4F57
:10067000D491F901EA56FE4FC491CC23A9F0162F6C
:1006800081110E949C02EC2FF0E0EE0FFF1FEE594B
:10069000FE4FA591B4918FB7F894EC91111108C059
:1006A000D095DE23DC938FBFDF91CF911F9108950A
:1006B000DE2BF8CFCF93DF9390E0FC01E452FE4FA6
:1006C00024918A569E4FFC0184918823D1F090E0BA
:1006D000880F991FFC01E85BFE4FA591B491FC01C6
:1006E000EE59FE4FC591D49161110EC09FB7F89499
:1006F0008C91E22FE0958E238C932881E223E8836E
:100700009FBFDF91CF9108958FB7F894EC91E22BC2
:10071000EC938FBFF6CF3FB7F89480919D029091F4
:100720009E02A0919F02B091A00226B5A89B05C091
:100730002F3F19F00196A11DB11D3FBFBA2FA92F60
:10074000982F8827BC01CD01620F711D811D911D5D
:1007500042E0660F771F881F991F4A95D1F70895C9
:100760008F929F92AF92BF92CF92DF92EF92FF92C1
:100770006B017C010E948B034B015C01C114D1040D
:10078000E104F104B9F00E948B03681979098A0920
:100790009B09683E73408105910580F321E0C21AF0
:1007A000D108E108F10888EE880E83E0981EA11CAC
:1007B000B11CE4CFFF90EF90DF90CF90BF90AF904F
:1007C0009F908F900895FC0101900020E9F73197E8
:1007D000AF01481B590BBC0187EA92E00C946801F9
:1007E0008F929F92AF92BF920F931F93CF93DF93FD
:1007F000CDB7DEB7A1970FB6F894DEBF0FBECDBF61
:1008000019A2423008F44AE08E010F5D1F4F842E7A
:10081000912CB12CA12CA50194010E94A90BE62FCB
:10082000B901CA01EA30F4F4E05DD801EE938D011C
:10083000232B242B252B79F790E080E0109719F0DB
:10084000CD010E94E303A1960FB6F894DEBF0FBE60
:10085000CDBFDF91CF911F910F91BF90AF909F902F
:100860008F900895E95CE1CF0C94E303CF93DF937D
:100870000E94E303EC0182E192E00E94E3038C0F0B
:100880009D1FDF91CF910895CF93DF93682F70E084
:1008900090E080E04AE00E94F003EC0182E192E007
:1008A0000E94E3038C0F9D1FDF91CF91089561E0BB
:1008B00085E30E942C0361E082E30E942C0368EC34
:1008C00070E080E090E00E94B00360E082E30E946C
:1008D0002C0360E085E30E942C0361E083E30E9427
:1008E0002C0361E08EE20E942C0361E086E00E940E
:1008F0002C0368EC70E080E090E00E94B0038FB1C0
:100900000E94440460E086E00E942C0360E08EE2D6
:100910000E942C0360E083E30C942C03CF93DF93BD
:10092000BC01990F880B990B4AE00E94F003EC017F
:1009300082E192E00E94E3038C0F9D1FDF91CF9133
:1009400008951F920F920FB60F9211240BB60F92BB
:100950002F933F934F935F936F937F938F939F93C7
:10096000AF93BF93EF93FF9387EA92E00E94DC017D
:10097000FF91EF91BF91AF919F918F917F916F9177
:100980005F914F913F912F910F900BBE0F900FBE33
:100990000F901F9018951F920F920FB60F9211246F
:1009A0000BB60F922F938F939F93EF93FF93E0914A
:1009B000B702F091B8028081E091BD02F091BE02D1
:1009C00082FD1DC090818091C0028F5F8F73209146
:1009D000C102821741F0E091C002F0E0E955FD4FFD
:1009E000958F8093C002FF91EF919F918F912F91EE
:1009F0000F900BBE0F900FBE0F901F901895808127
:100A0000F2CF1F920F920FB60F9211242F933F93A4
:100A10008F939F93AF93BF938091990290919A0285
:100A2000A0919B02B0919C023091980223E0230F89
:100A30002D3758F50196A11DB11D20939802809382
:100A4000990290939A02A0939B02B0939C0280918A
:100A50009D0290919E02A0919F02B091A0020196EA
:100A6000A11DB11D80939D0290939E02A0939F02B1
:100A7000B093A002BF91AF919F918F913F912F9121
:100A80000F900FBE0F901F90189526E8230F029627
:100A9000A11DB11DD2CF789484B5826084BD84B588
:100AA000816084BD85B5826085BD85B5816085BD69
:100AB00080916E00816080936E0010928100809121
:100AC00081008260809381008091810081608093A9
:100AD0008100809180008160809380008091B100CE
:100AE00084608093B1008091B00081608093B000F9
:100AF000809191008260809391008091910081604B
:100B0000809391008091900081608093900080910B
:100B1000A10082608093A1008091A10081608093F8
:100B2000A1008091A00081608093A00080912101AC
:100B30008260809321018091210181608093210155
:100B40008091200181608093200180917A008460EF
:100B500080937A0080917A00826080937A008091FD
:100B60007A00816080937A0080917A008068809317
:100B70007A001092C10060E086E10E945A0360E0B2
:100B800087E10E945A0360E088E10E945A0360E016
:100B900089E10E945A0360E08AE10E945A0360E002
:100BA0008BE10E945A0360E08CE10E945A0360E0EE
:100BB0008DE10E945A0360E08EE10E945A0360E0DA
:100BC0008FE10E945A0360E080E20E945A0360E0D5
:100BD00081E20E945A0360E082E20E945A0360E0D0
:100BE00083E20E945A0360E084E20E945A0361E0BB
:100BF00085E20E945A0361E086E20E945A0361E0A6
:100C000087E20E945A0361E088E20E945A0361E091
:100C100089E20E945A0361E08AE20E945A0361E07D
:100C20008BE20E945A0361E08CE20E945A0361E069
:100C30008DE20E945A0361E08EE20E945A0361E055
:100C40008FE20E945A0361E080E30E945A0361E050
:100C500081E30E945A0361E082E30E945A0361E04B
:100C600083E30E945A0361E084E30E945A0361E037
:100C700085E30E945A0361E086E00E945A0361E026
:100C800087E00E945A038FEF80BB8FE080930701BB
:100C9000E091B702F091B80282E08083E091B30264
:100CA000F091B4021082E091B502F091B6028FEC9F
:100CB00080831092BF02E091BB02F091BC0286E0FB
:100CC0008083E091B902F091BA02808180618083D3
:100CD000E091B902F091BA02808188608083E0914E
:100CE000B902F091BA02808180688083E091B902F4
:100CF000F091BA0280818F7D80838091A5028093DC
:100D0000080161E087E00E942C0361E082E30E9419
:100D10002C0368EC70E080E090E00E94B00360E09B
:100D200082E30E942C0360E087E00E942C0361E0D4
:100D300083E30E942C0361E084E30E942C0368ECAF
:100D400070E080E090E00E94B00360E084E30E94E5
:100D50002C0360E083E30E942C0385E192E00E9473
:100D600034046091A5027091A60290E080E04AE010
:100D70000E94F0038AE192E00E94340486E10E941E
:100D80000303019709F064C084E292E00E943404F6
:100D900061E085E30E942C0361E082E30E942C0362
:100DA00068EC70E080E090E00E94B00360E082E3D5
:100DB0000E942C0360E085E30E942C0361E083E342
:100DC0000E942C0361E085E20E942C0361E086E032
:100DD0000E942C0368EC70E080E090E00E94B00379
:100DE0008FB10E94440460E086E00E942C0360E022
:100DF00085E20E942C0360E083E30E942C03809133
:100E0000A402882351F08091A2029091A3029093B2
:100E1000A6028093A5021092A4028091A1028823C9
:100E200029F081E08093A4021092A10268EC70E0A6
:100E300080E090E00E94B0038091A5029091A6020C
:100E400001969093A6028093A5020E946B0255CF53
:100E500087E10E940303019791F589E292E00E94E5
:100E600034040E94570461E087E20E942C0361E091
:100E70008DE20E942C0361E085E20E942C0361E078
:100E800086E00E942C0368EC70E080E090E00E9415
:100E9000B0038EE292E00E9434048FB10E944404B9
:100EA00060E086E00E942C0360E085E20E942C0353
:100EB00060E08DE20E942C0360E087E29ECF88E133
:100EC0000E940303019791F581E392E00E943404AC
:100ED0000E94570461E088E20E942C0361E08DE2E9
:100EE0000E942C0361E085E20E942C0361E086E011
:100EF0000E942C0368EC70E080E090E00E94B00358
:100F00008EE292E00E9434048FB10E94440460E0BB
:100F100086E00E942C0360E085E20E942C0360E0E2
:100F20008DE20E942C0360E088E267CF89E10E9495
:100F30000303019791F586E392E00E9434040E9436
:100F4000570461E089E20E942C0361E08DE20E9477
:100F50002C0361E085E20E942C0361E086E00E94A0
:100F60002C0368EC70E080E090E00E94B0038EE219
:100F700092E00E9434048FB10E94440460E086E055
:100F80000E942C0360E085E20E942C0360E08DE269
:100F90000E942C0360E089E230CF8AE10E940303C3
:100FA000019791F58CE392E00E9434040E9457046B
:100FB00061E08AE20E942C0361E08DE20E942C0332
:100FC00061E085E20E942C0361E086E00E942C0330
:100FD00068EC70E080E090E00E94B0038EE292E066
:100FE0000E9434048FB10E94440460E086E00E94B5
:100FF0002C0360E085E20E942C0360E08DE20E94F9
:101000002C0360E08AE2F9CE8BE10E940303019792
:10101000B1F581E492E00E94340468EC70E080E075
:1010200090E00E94B0038091A5029091A602909357
:10103000A3028093A20261E085E30E942C0361E099
:1010400086E00E942C0368EC70E080E090E00E9453
:10105000B0038FB10E9444048FB18150990B9093DB
:10106000A6028093A50260E086E00E942C0360E067
:1010700085E30E942C0381E08093A102C0CE8CE125
:101080000E9403030197A9F487E492E00E943404CC
:101090006091A2027091A30290E080E04AE00E9479
:1010A000F00382E192E00E94E30381E08093A402D6
:1010B000A6CE8DE10E940303019789F58DE492E0AD
:1010C0000E94340468EC70E080E090E00E94B0037D
:1010D0008091A5029091A6029093A3028093A20210
:1010E00061E085E30E942C0361E086E00E942C030E
:1010F00068EC70E080E090E00E94B0038FB10E9445
:1011000044048FB18150990B9093A6028093A5025D
:1011100060E086E00E942C0360E085E36ECE8EE105
:101120000E940303019721F583E592E00E943404B5
:1011300061E086E20E942C0361E08FE20E942C03B2
:1011400061E086E00E942C0368EC70E080E090E0B3
:101150000E94B0038FB10E94440460E086E00E94C8
:101160002C0360E08FE20E942C0360E086E245CE13
:101170008FE10E9403030197B1F488E592E00E9499
:1011800036048CE592E00E94360485E692E00E94E7
:10119000360468EC70E080E090E00E94B00381E0EB
:1011A00090E00E94D30B80E20E940303019709F0B4
:1011B000A3C08BE692E00E94340461E086E20E94C4
:1011C0002C0361E08EE20E942C0368EC70E080E06A
:1011D00090E00E94B00360E08EE20E942C0360E089
:1011E00086E20E942C0361E085E30E942C0361E00B
:1011F00082E30E942C0368EC70E080E090E00E94A3
:10120000B00360E082E30E942C0360E085E30E946B
:101210002C0361E083E30E942C0361E086E00E94DE
:101220002C0368EC70E080E090E00E94B003CFB146
:10123000D0E0CE010E948E0460E086E00E942C0384
:1012400060E083E30E942C032197CE01019661E0C8
:10125000039778F189E20E942C0361E08DE20E94FD
:101260002C0361E08EE20E942C0361E086E00E9484
:101270002C0368EC70E080E090E00E94B0038EE206
:1012800092E00E9434046FB170E090E080E04AE0A8
:101290000E94F00360E086E00E942C0360E08EE292
:1012A0000E942C0360E08DE20E942C0360E089E242
:1012B000C9CF8DE20E942C0361E085E20E942C03DD
:1012C00061E086E00E942C0368EC70E080E090E032
:1012D0000E94B0038EE292E00E9434048FB10E941B
:1012E000440460E086E00E942C0360E085E20E94F6
:1012F0002C0360E08DE281CD81E20E94030301971F
:10130000C9F580E792E00E9434040E94570461E02E
:101310008BE20E942C0361E08DE20E942C0361E0CD
:1013200085E20E942C0361E086E00E942C0368ECB9
:1013300070E080E090E00E94B0038EE292E00E94B4
:1013400034048FB1813099F486E792E00E9436042C
:1013500060E086E00E942C0360E085E20E942C039E
:1013600060E08DE20E942C0360E08BE246CD8BE7CB
:1013700092E0ECCF82E20E9403030197C9F581E875
:1013800092E00E9434040E94570461E08CE20E94C3
:101390002C0361E08DE20E942C0361E085E20E9453
:1013A0002C0361E086E00E942C0368EC70E080E092
:1013B00090E00E94B0038EE292E00E9434048FB16C
:1013C000813099F486E792E00E94360460E086E07E
:1013D0000E942C0360E085E20E942C0360E08DE215
:1013E0000E942C0360E08CE208CD8BE792E0ECCF0A
:1013F00083E20E940303019709F06FC087E892E03F
:101400000E94340461E086E20E942C0361E080E3E4
:101410000E942C0368EC70E080E090E00E94B00332
:1014200060E080E30E942C0360E086E20E942C03CF
:101430000E94570461E08AE20E942C0361E08DE281
:101440000E942C0361E085E20E942C0368EC70E0AE
:1014500080E090E00E94B00360E085E20E942C03EF
:1014600060E08DE20E942C0360E08AE20E942C037F
:1014700061E089E20E942C0361E08DE20E942C036E
:1014800061E08EE20E942C0368EC70E080E090E066
:101490000E94B00360E08EE20E942C0360E08DE2C7
:1014A0000E942C0360E089E20E942C0361E081E34A
:1014B0000E942C0361E085E20E942C0368EC70E03E
:1014C00080E090E00E94B00360E085E20E942C037F
:1014D00060E081E30E942C03FDCC84E20E940303C0
:1014E000019709F004C18CE892E00E94340461E0A5
:1014F00085E30E942C0361E082E30E942C0368ECE8
:1015000070E080E090E00E94B00360E082E30E941F
:101510002C0360E085E30E942C0361E083E30E94DA
:101520002C0361E085E20E942C0361E08EE20E94C0
:101530002C0361E080E30E942C0361E086E00E94BE
:101540002C0368EC70E080E090E00E94B003CFB123
:10155000D0E0CE010E948E0460E086E00E942C0361
:1015600060E080E30E942C0360E08EE20E942C0386
:1015700060E085E20E942C0360E083E30E942C037C
:101580002197CE010196039708F498C061E08AE2A2
:101590000E942C0361E08DE20E942C0361E085E251
:1015A0000E942C0368EC70E080E090E00E94B003A1
:1015B00060E085E20E942C0360E08DE20E942C0333
:1015C00060E08AE20E942C0361E088E20E942C0322
:1015D00061E08DE20E942C0361E085E20E942C0311
:1015E00068EC70E080E090E00E94B00360E085E28B
:1015F0000E942C0360E08DE20E942C0360E088E2F0
:101600000E942C0361E081E30E942C0361E08EE2E2
:101610000E942C0368EC70E080E090E00E94B00330
:1016200060E08EE20E942C0360E081E30E942C03C4
:1016300061E089E20E942C0361E08DE20E942C03AC
:1016400061E080E30E942C0361E086E00E942C03AD
:1016500068EC70E080E090E00E94B0038EE292E0DF
:101660000E9434046FB170E090E080E04AE00E9494
:10167000F00360E086E00E942C0360E080E30E94BB
:101680002C0360E08DE20E942C0360E089E20E945E
:101690002C0361E086E20E942C0361E08EE20E944E
:1016A0002C0368EC70E080E090E00E94B00360E002
:1016B0008EE20E942C0360E086E260CF84E192E03B
:1016C0000E94360461E081E30E942C0361E085E220
:1016D0000E942C0368EC70E080E090E00E94B00370
:1016E00060E085E20E942C0360E081E386CB82E922
:1016F00092E00E94360483CBE7EAF2E01382128282
:1017000088EE93E0A0E0B0E084839583A683B7835E
:1017100084E092E09183808385EC90E095878487D4
:1017200084EC90E09787868780EC90E0918B808BAB
:1017300081EC90E0938B828B82EC90E0958B848B94
:1017400086EC90E0978B868B118E128E138E148E02
:101750000895A1E21A2EAA1BBB1BFD010DC0AA1FF2
:10176000BB1FEE1FFF1FA217B307E407F50720F00A
:10177000A21BB30BE40BF50B661F771F881F991F85
:101780001A9469F760957095809590959B01AC01CE
:10179000BD01CF010895EE0FFF1F881F8BBF07907B
:0A17A000F691E02D1994F894FFCFA4
:1017AA0000000000FE01680195014B02C601A40178
:1017BA00B8010D0A0050433A2000202C4F7264658C
:1017CA006E3A20004C4441200041444420002D3E02
:1017DA000053554220004D554C5420004449562090
:1017EA000043414C4C20005254524E2000474F5463
:1017FA004F20004F55542000484C5400476F6F64E7
:10180A0062796521005B4556475D00504F572000BD
:10181A00475254522000545255450046414C5345B4
:10182A00004C4F575220004D4F442000464143542C
:08183A0020004E4F4E45000056
:00000001FF
